{
  "address": "0xe7f1725E7734CE288F8367e1Bb143E90bb3F0512",
  "abi": [
    {
      "inputs": [
        {
          "internalType": "address",
          "name": "priceFeedAddress",
          "type": "address"
        }
      ],
      "stateMutability": "nonpayable",
      "type": "constructor"
    },
    {
      "inputs": [
        {
          "internalType": "address",
          "name": "",
          "type": "address"
        }
      ],
      "name": "adressToAmountFunded",
      "outputs": [
        {
          "internalType": "uint256",
          "name": "",
          "type": "uint256"
        }
      ],
      "stateMutability": "view",
      "type": "function"
    },
    {
      "inputs": [],
      "name": "fund",
      "outputs": [],
      "stateMutability": "payable",
      "type": "function"
    },
    {
      "inputs": [
        {
          "internalType": "uint256",
          "name": "",
          "type": "uint256"
        }
      ],
      "name": "funders",
      "outputs": [
        {
          "internalType": "address",
          "name": "",
          "type": "address"
        }
      ],
      "stateMutability": "view",
      "type": "function"
    },
    {
      "inputs": [],
      "name": "minimumUsd",
      "outputs": [
        {
          "internalType": "uint256",
          "name": "",
          "type": "uint256"
        }
      ],
      "stateMutability": "view",
      "type": "function"
    },
    {
      "inputs": [],
      "name": "owner",
      "outputs": [
        {
          "internalType": "address",
          "name": "",
          "type": "address"
        }
      ],
      "stateMutability": "view",
      "type": "function"
    },
    {
      "inputs": [],
      "name": "withdraw",
      "outputs": [],
      "stateMutability": "nonpayable",
      "type": "function"
    }
  ],
  "transactionHash": "0x61f9d093e6a561829dab091269310835b3e6faeb6cb5e765b4537804ed50b662",
  "args": [
    "0x5FbDB2315678afecb367f032d93F642f64180aa3"
  ],
  "numDeployments": 1,
  "solcInputHash": "55c9a0f6d1a200e86162188e9881feef",
  "bytecode": "0x60a060405234801561001057600080fd5b50604051610e47380380610e4783398181016040528101906100329190610110565b3373ffffffffffffffffffffffffffffffffffffffff1660808173ffffffffffffffffffffffffffffffffffffffff168152505080600260006101000a81548173ffffffffffffffffffffffffffffffffffffffff021916908373ffffffffffffffffffffffffffffffffffffffff1602179055505061013d565b600080fd5b600073ffffffffffffffffffffffffffffffffffffffff82169050919050565b60006100dd826100b2565b9050919050565b6100ed816100d2565b81146100f857600080fd5b50565b60008151905061010a816100e4565b92915050565b600060208284031215610126576101256100ad565b5b6000610134848285016100fb565b91505092915050565b608051610ce861015f6000396000818161015a01526103b50152610ce86000f3fe6080604052600436106100555760003560e01c8063098de8201461005a5780633ccfd60b1461008557806355f2a7d51461009c5780638da5cb5b146100d9578063b60d428814610104578063dc0d3dff1461010e575b600080fd5b34801561006657600080fd5b5061006f61014b565b60405161007c91906106cc565b60405180910390f35b34801561009157600080fd5b5061009a610158565b005b3480156100a857600080fd5b506100c360048036038101906100be919061074a565b61039b565b6040516100d091906106cc565b60405180910390f35b3480156100e557600080fd5b506100ee6103b3565b6040516100fb9190610786565b60405180910390f35b61010c6103d7565b005b34801561011a57600080fd5b50610135600480360381019061013091906107cd565b610500565b6040516101429190610786565b60405180910390f35b6802b5e3af16b188000081565b7f000000000000000000000000000000000000000000000000000000000000000073ffffffffffffffffffffffffffffffffffffffff163373ffffffffffffffffffffffffffffffffffffffff16146101e6576040517f08c379a00000000000000000000000000000000000000000000000000000000081526004016101dd9061087d565b60405180910390fd5b60005b60008054905081101561028b5760006001600080848154811061020f5761020e61089d565b5b9060005260206000200160009054906101000a900473ffffffffffffffffffffffffffffffffffffffff1673ffffffffffffffffffffffffffffffffffffffff1673ffffffffffffffffffffffffffffffffffffffff168152602001908152602001600020819055508080610283906108fb565b9150506101e9565b50600067ffffffffffffffff8111156102a7576102a6610943565b5b6040519080825280602002602001820160405280156102d55781602001602082028036833780820191505090505b50600090805190602001906102eb92919061060c565b5060003373ffffffffffffffffffffffffffffffffffffffff1647604051610312906109a3565b60006040518083038185875af1925050503d806000811461034f576040519150601f19603f3d011682016040523d82523d6000602084013e610354565b606091505b5050905080610398576040517f08c379a000000000000000000000000000000000000000000000000000000000815260040161038f90610a04565b60405180910390fd5b50565b60016020528060005260406000206000915090505481565b7f000000000000000000000000000000000000000000000000000000000000000081565b6802b5e3af16b1880000610416600260009054906101000a900473ffffffffffffffffffffffffffffffffffffffff163461053f90919063ffffffff16565b1015610457576040517f08c379a000000000000000000000000000000000000000000000000000000000815260040161044e90610a70565b60405180910390fd5b6000339080600181540180825580915050600190039060005260206000200160009091909190916101000a81548173ffffffffffffffffffffffffffffffffffffffff021916908373ffffffffffffffffffffffffffffffffffffffff16021790555034600160003373ffffffffffffffffffffffffffffffffffffffff1673ffffffffffffffffffffffffffffffffffffffff16815260200190815260200160002081905550565b6000818154811061051057600080fd5b906000526020600020016000915054906101000a900473ffffffffffffffffffffffffffffffffffffffff1681565b60008061054b8361057b565b90506000670de0b6b3a764000085836105649190610a90565b61056e9190610b01565b9050809250505092915050565b6000808273ffffffffffffffffffffffffffffffffffffffff1663feaf968c6040518163ffffffff1660e01b815260040160a060405180830381865afa1580156105c9573d6000803e3d6000fd5b505050506040513d601f19601f820116820180604052508101906105ed9190610bbf565b5050509150506402540be400816106049190610c3a565b915050919050565b828054828255906000526020600020908101928215610685579160200282015b828111156106845782518260006101000a81548173ffffffffffffffffffffffffffffffffffffffff021916908373ffffffffffffffffffffffffffffffffffffffff1602179055509160200191906001019061062c565b5b5090506106929190610696565b5090565b5b808211156106af576000816000905550600101610697565b5090565b6000819050919050565b6106c6816106b3565b82525050565b60006020820190506106e160008301846106bd565b92915050565b600080fd5b600073ffffffffffffffffffffffffffffffffffffffff82169050919050565b6000610717826106ec565b9050919050565b6107278161070c565b811461073257600080fd5b50565b6000813590506107448161071e565b92915050565b6000602082840312156107605761075f6106e7565b5b600061076e84828501610735565b91505092915050565b6107808161070c565b82525050565b600060208201905061079b6000830184610777565b92915050565b6107aa816106b3565b81146107b557600080fd5b50565b6000813590506107c7816107a1565b92915050565b6000602082840312156107e3576107e26106e7565b5b60006107f1848285016107b8565b91505092915050565b600082825260208201905092915050565b7f596f7520617265206e6f7420417574686f72697a656420746f2077697468647260008201527f61772046756e64732e0000000000000000000000000000000000000000000000602082015250565b60006108676029836107fa565b91506108728261080b565b604082019050919050565b600060208201905081810360008301526108968161085a565b9050919050565b7f4e487b7100000000000000000000000000000000000000000000000000000000600052603260045260246000fd5b7f4e487b7100000000000000000000000000000000000000000000000000000000600052601160045260246000fd5b6000610906826106b3565b91507fffffffffffffffffffffffffffffffffffffffffffffffffffffffffffffffff8203610938576109376108cc565b5b600182019050919050565b7f4e487b7100000000000000000000000000000000000000000000000000000000600052604160045260246000fd5b600081905092915050565b50565b600061098d600083610972565b91506109988261097d565b600082019050919050565b60006109ae82610980565b9150819050919050565b7f43616c6c206661696c6564000000000000000000000000000000000000000000600082015250565b60006109ee600b836107fa565b91506109f9826109b8565b602082019050919050565b60006020820190508181036000830152610a1d816109e1565b9050919050565b7f4e6f7420456e6f75676820666f72205472616e73616374696f6e212100000000600082015250565b6000610a5a601c836107fa565b9150610a6582610a24565b602082019050919050565b60006020820190508181036000830152610a8981610a4d565b9050919050565b6000610a9b826106b3565b9150610aa6836106b3565b9250828202610ab4816106b3565b91508282048414831517610acb57610aca6108cc565b5b5092915050565b7f4e487b7100000000000000000000000000000000000000000000000000000000600052601260045260246000fd5b6000610b0c826106b3565b9150610b17836106b3565b925082610b2757610b26610ad2565b5b828204905092915050565b600069ffffffffffffffffffff82169050919050565b610b5181610b32565b8114610b5c57600080fd5b50565b600081519050610b6e81610b48565b92915050565b6000819050919050565b610b8781610b74565b8114610b9257600080fd5b50565b600081519050610ba481610b7e565b92915050565b600081519050610bb9816107a1565b92915050565b600080600080600060a08688031215610bdb57610bda6106e7565b5b6000610be988828901610b5f565b9550506020610bfa88828901610b95565b9450506040610c0b88828901610baa565b9350506060610c1c88828901610baa565b9250506080610c2d88828901610b5f565b9150509295509295909350565b6000610c4582610b74565b9150610c5083610b74565b9250828202610c5e81610b74565b91507f80000000000000000000000000000000000000000000000000000000000000008414600084121615610c9657610c956108cc565b5b8282058414831517610cab57610caa6108cc565b5b509291505056fea26469706673582212205b2afb728aaa0e86f618aa742fee28556461844bf862263d7c804882604363cf64736f6c63430008130033",
  "devdoc": {
    "kind": "dev",
    "methods": {},
    "version": 1
  },
  "userdoc": {
    "kind": "user",
    "methods": {},
    "version": 1
  },
  "storageLayout": {
    "storage": [
      {
        "astId": 60,
        "contract": "contracts/FundMe.sol:FundMe",
        "label": "funders",
        "offset": 0,
        "slot": "0",
        "type": "t_array(t_address)dyn_storage"
      },
      {
        "astId": 64,
        "contract": "contracts/FundMe.sol:FundMe",
        "label": "adressToAmountFunded",
        "offset": 0,
        "slot": "1",
        "type": "t_mapping(t_address,t_uint256)"
      },
      {
        "astId": 69,
        "contract": "contracts/FundMe.sol:FundMe",
        "label": "priceFeed",
        "offset": 0,
        "slot": "2",
        "type": "t_contract(AggregatorV3Interface)45"
      }
    ],
    "types": {
      "t_address": {
        "encoding": "inplace",
        "label": "address",
        "numberOfBytes": "20"
      },
      "t_array(t_address)dyn_storage": {
        "base": "t_address",
        "encoding": "dynamic_array",
        "label": "address[]",
        "numberOfBytes": "32"
      },
      "t_contract(AggregatorV3Interface)45": {
        "encoding": "inplace",
        "label": "contract AggregatorV3Interface",
        "numberOfBytes": "20"
      },
      "t_mapping(t_address,t_uint256)": {
        "encoding": "mapping",
        "key": "t_address",
        "label": "mapping(address => uint256)",
        "numberOfBytes": "32",
        "value": "t_uint256"
      },
      "t_uint256": {
        "encoding": "inplace",
        "label": "uint256",
        "numberOfBytes": "32"
      }
    }
  }
}